:100000000C943A000C9457000C9457000C94570031
:100010000C9457000C9457000C9457000C94570004
:100020000C9457000C9457000C9457000C945700F4
:100030000C9457000C9457000C9457000C945700E4
:100040000C9457000C9457000C9457000C945700D4
:100050000C9457000C9457000C9457000C945700C4
:100060000C9457000C9457000C9457000C945700B4
:100070000C94570011241FBECFEFD2E0DEBFCDBFDE
:1000800011E0A0E0B1E0EEE2F7E002C005900D92D1
:10009000A036B107D9F721E0A0E6B1E001C01D927A
:1000A000AA36B207E1F70E9414030C9495030C944E
:1000B0000000EF92FF920F931F93CF93DF93FC0109
:1000C000208101E010E001C0000F6A95EAF7302FAF
:1000D0003095232320839A01277F21153140B9F4DD
:1000E0007A01EC018DE30E940E038AE20E940E0366
:1000F00080E80E940E03E11461E0F60611F486EA3E
:1001000001C087EA0E940E038881082B0883DF91D3
:10011000CF911F910F91FF90EF900895AF92BF92F2
:10012000CF92DF92EF92FF920F931F93CF93DF93C3
:100130007C01842F5901F7019081C1E0D0E001C01A
:10014000CC0F6A95EAF72C2F2095922390830E947A
:100150000E036501C6018A199B09801791073CF4BB
:1001600080E00E940E03F60181936F01F3CFF70147
:100170008081C82BC083DF91CF911F910F91FF9099
:10018000EF90DF90CF90BF90AF9008950F931F93A3
:10019000CF93DF9300D0CDB7DEB702E010E09E0131
:1001A0002F5F3F4F47ED50E00E948E008981809580
:1001B000881F8827881F0F900F90DF91CF911F9184
:1001C0000F910895BF92CF92DF92EF92FF920F931B
:1001D0001F93CF93DF937C01162FB72EEA0169019D
:1001E00000FF17C0FC01208181E090E001C0880F72
:1001F0006A95EAF780958223808384E80E940E0343
:1002000080E00E940E0380E00E940E0380E00E94C6
:100210000E03209771F401FF1FC0F701208181E0D8
:1002200090E0012E01C0880F0A94EAF7822B8083A8
:100230000CC01C141D047CF7CC0EDD1E89910E949D
:100240000E03CC15DD05D1F7E6CF612F7B2DC7015D
:100250000E94C6008111F9CFDF91CF911F910F91BC
:10026000FF90EF90DF90CF90BF900895CF92DF92F4
:10027000EF92FF920F931F93CF93DF938C01F62E93
:10028000E72ED42EC52EFC018081C1E0D0E001C054
:10029000CC0F6A95EAF79C2F90958923808383E899
:1002A0000E940E038C2D8F770E940E038D2D0E94CD
:1002B0000E0380E00E940E03F8018081C82BC083EA
:1002C0006F2D7E2DC8010E94C6008111F9CFDF91EC
:1002D000CF911F910F91FF90EF90DF90CF900895F5
:1002E0009F92AF92BF92CF92DF92EF92FF920F93C5
:1002F0001F93CF93DF936C01F62EB72EA42E952E6D
:10030000E901E0FE1EC0FC01208181E090E001C017
:10031000880F6A95EAF78095822380838BE10E949B
:100320000E03892D8F770E940E038A2D0E940E03E3
:1003300080E00E940E0380E00E940E0380E00E9495
:100340000E03209771F4E1FE20C0F601208181E0C8
:1003500090E00F2C01C0880F0A94EAF7822B80836B
:100360000DC0101611067CF70C0F1D1F80E00E94B7
:100370000E038993C017D107C9F7E5CF6F2D7B2DE9
:10038000C6010E94C6008111F9CFDF91CF911F9164
:100390000F91FF90EF90DF90CF90BF90AF909F9024
:1003A000089583E090E00895CF92DF92EF92FF925C
:1003B0000F931F93CF93DF93C7E5D1E0DC0101E5F5
:1003C00011E06B01AB01BC01E990F990F7013081BC
:1003D000FB012191BF0120952323F7012083F80120
:1003E000E190F1908F01F7013081FA012191AF0185
:1003F000232BF7012083F1E0CD35DF0729F747E311
:1004000051E0C3E2D1E003962D9130E0FA0121934F
:100410003193AF01F60121916F0130E029933993B7
:10042000A817B90789F7DF91CF911F910F91FF901E
:10043000EF90DF90CF900895CF93DF93FC01A7E575
:10044000B1E09C014D915D91EA019881E9018991AA
:100450009E01892BEA018883D1E0AD35BD0791F774
:10046000808190E09093100180930F01818190E052
:100470009093120180931101828190E09093140176
:1004800080931301DF91CF9108950F931F93CF9322
:10049000DF93FC0110821182128207E311E02BE44A
:1004A00031E0C3E2D1E04DE351E0D8018D919D915F
:1004B0008D0197FD0AC0D9016D917C91DB019C9162
:1004C000892380839881892780832E5F3F4F3196CF
:1004D00022964017510749F7DF91CF911F910F9155
:1004E0000895FB01BC016D5F7F4F20E030E0DC012F
:1004F0005D91CD0141914523242B6A177B07B9F704
:1005000081E0232B09F480E00895CF93DF936FE01F
:1005100071E0E1E5F1E0DB012D913D91BD0137FD99
:1005200010C0C081D1814881DC013C913223342B41
:100530003883C081D181388120954C91242B23238D
:10054000288332960196B1E0E735FB0721F7DF916A
:10055000CF910895CF93DF93660F771FEC01C60FFD
:10056000D71FE0E6F1E080E090E0A881B981A80F14
:10057000B91F30812C91232B219301968330910553
:10058000A1F780E691E0DF91CF910C948502CF93A3
:10059000DF93660F771FEC01C60FD71FE0E6F1E08F
:1005A00020E030E0A881B981A20FB31F9C91909503
:1005B0008081982391932F5F3F4F2330310591F72E
:1005C00080E691E0DF91CF910C948502CF93DF9389
:1005D000660F771FEC01C60FD71FE0E6F1E080E061
:1005E00090E0A881B981A80FB91F30812C912327F1
:1005F0002193019683309105A1F780E691E0DF9188
:10060000CF910C94850284B1876084B92398289A8D
:100610002B9A81E08DBD8CE58CBD08958EBD0DB407
:1006200007FEFDCF8EB508950F931F93CF93DF93F1
:1006300000D000D000D0CDB7DEB780915D019091A1
:100640005E01A0915F018C839D83AE83CE010496F1
:100650000E941C020E94030385B1806585B903E0F6
:1006600010E09E012F5F3F4F4FE950E064E070E0E3
:1006700085E290E00E948E0089818F31A9F48A8101
:10068000883291F48B8181110FC060E070E080E0CE
:1006900091E00E94AA022FEF80E792E02150804073
:1006A0009040E1F700C0000003E010E09E012F5FE2
:1006B0003F4F4FE950E066E070E085E290E00E9435
:1006C0008E0089818F31A9F48A81883291F48B81DF
:1006D00081110FC061E070E080E091E00E94AA0209
:1006E0002FEF80E792E0215080409040E1F700C07A
:1006F000000062E070E080E091E00E94AA022FEF2B
:1007000080E792E0215080409040E1F700C0000077
:1007100080E090E026960FB6F894DEBF0FBECDBF06
:0E072000DF91CF911F910F910895F894FFCFB4
:10072E000C0109010601002000004000800000FFBE
:10073E00FFFFFFFFFFFFFFFFFFFFFFFFFFFFFFFFBB
:10074E00FFFFFFFFFFFFFFFFFFFFFFFFFFFFFFFFAB
:10075E00FFFFFFFFFFFFFFFFFFFFFFFFFFFFFFFF9B
:10076E00FFFFFFFFFFFFFFFFFFFFFF230026002914
:10077E0000250028002B00240027002A00D060004E
:00000001FF
